{
  "contractName": "SuperMarioWorldCollection",
  "abi": [
    {
      "inputs": [
        {
          "internalType": "string",
          "name": "_name",
          "type": "string"
        },
        {
          "internalType": "string",
          "name": "_symbol",
          "type": "string"
        },
        {
          "internalType": "string",
          "name": "_baseUri",
          "type": "string"
        }
      ],
      "stateMutability": "nonpayable",
      "type": "constructor"
    },
    {
      "anonymous": false,
      "inputs": [
        {
          "indexed": true,
          "internalType": "address",
          "name": "account",
          "type": "address"
        },
        {
          "indexed": true,
          "internalType": "address",
          "name": "operator",
          "type": "address"
        },
        {
          "indexed": false,
          "internalType": "bool",
          "name": "approved",
          "type": "bool"
        }
      ],
      "name": "ApprovalForAll",
      "type": "event"
    },
    {
      "anonymous": false,
      "inputs": [
        {
          "indexed": true,
          "internalType": "address",
          "name": "previousOwner",
          "type": "address"
        },
        {
          "indexed": true,
          "internalType": "address",
          "name": "newOwner",
          "type": "address"
        }
      ],
      "name": "OwnershipTransferred",
      "type": "event"
    },
    {
      "anonymous": false,
      "inputs": [
        {
          "indexed": true,
          "internalType": "address",
          "name": "operator",
          "type": "address"
        },
        {
          "indexed": true,
          "internalType": "address",
          "name": "from",
          "type": "address"
        },
        {
          "indexed": true,
          "internalType": "address",
          "name": "to",
          "type": "address"
        },
        {
          "indexed": false,
          "internalType": "uint256[]",
          "name": "ids",
          "type": "uint256[]"
        },
        {
          "indexed": false,
          "internalType": "uint256[]",
          "name": "values",
          "type": "uint256[]"
        }
      ],
      "name": "TransferBatch",
      "type": "event"
    },
    {
      "anonymous": false,
      "inputs": [
        {
          "indexed": true,
          "internalType": "address",
          "name": "operator",
          "type": "address"
        },
        {
          "indexed": true,
          "internalType": "address",
          "name": "from",
          "type": "address"
        },
        {
          "indexed": true,
          "internalType": "address",
          "name": "to",
          "type": "address"
        },
        {
          "indexed": false,
          "internalType": "uint256",
          "name": "id",
          "type": "uint256"
        },
        {
          "indexed": false,
          "internalType": "uint256",
          "name": "value",
          "type": "uint256"
        }
      ],
      "name": "TransferSingle",
      "type": "event"
    },
    {
      "anonymous": false,
      "inputs": [
        {
          "indexed": false,
          "internalType": "string",
          "name": "value",
          "type": "string"
        },
        {
          "indexed": true,
          "internalType": "uint256",
          "name": "id",
          "type": "uint256"
        }
      ],
      "name": "URI",
      "type": "event"
    },
    {
      "inputs": [
        {
          "internalType": "address",
          "name": "account",
          "type": "address"
        },
        {
          "internalType": "uint256",
          "name": "id",
          "type": "uint256"
        }
      ],
      "name": "balanceOf",
      "outputs": [
        {
          "internalType": "uint256",
          "name": "",
          "type": "uint256"
        }
      ],
      "stateMutability": "view",
      "type": "function",
      "constant": true
    },
    {
      "inputs": [
        {
          "internalType": "address[]",
          "name": "accounts",
          "type": "address[]"
        },
        {
          "internalType": "uint256[]",
          "name": "ids",
          "type": "uint256[]"
        }
      ],
      "name": "balanceOfBatch",
      "outputs": [
        {
          "internalType": "uint256[]",
          "name": "",
          "type": "uint256[]"
        }
      ],
      "stateMutability": "view",
      "type": "function",
      "constant": true
    },
    {
      "inputs": [],
      "name": "baseUri",
      "outputs": [
        {
          "internalType": "string",
          "name": "",
          "type": "string"
        }
      ],
      "stateMutability": "view",
      "type": "function",
      "constant": true
    },
    {
      "inputs": [
        {
          "internalType": "address",
          "name": "account",
          "type": "address"
        },
        {
          "internalType": "address",
          "name": "operator",
          "type": "address"
        }
      ],
      "name": "isApprovedForAll",
      "outputs": [
        {
          "internalType": "bool",
          "name": "",
          "type": "bool"
        }
      ],
      "stateMutability": "view",
      "type": "function",
      "constant": true
    },
    {
      "inputs": [],
      "name": "name",
      "outputs": [
        {
          "internalType": "string",
          "name": "",
          "type": "string"
        }
      ],
      "stateMutability": "view",
      "type": "function",
      "constant": true
    },
    {
      "inputs": [],
      "name": "owner",
      "outputs": [
        {
          "internalType": "address",
          "name": "",
          "type": "address"
        }
      ],
      "stateMutability": "view",
      "type": "function",
      "constant": true
    },
    {
      "inputs": [],
      "name": "renounceOwnership",
      "outputs": [],
      "stateMutability": "nonpayable",
      "type": "function"
    },
    {
      "inputs": [
        {
          "internalType": "address",
          "name": "from",
          "type": "address"
        },
        {
          "internalType": "address",
          "name": "to",
          "type": "address"
        },
        {
          "internalType": "uint256[]",
          "name": "ids",
          "type": "uint256[]"
        },
        {
          "internalType": "uint256[]",
          "name": "amounts",
          "type": "uint256[]"
        },
        {
          "internalType": "bytes",
          "name": "data",
          "type": "bytes"
        }
      ],
      "name": "safeBatchTransferFrom",
      "outputs": [],
      "stateMutability": "nonpayable",
      "type": "function"
    },
    {
      "inputs": [
        {
          "internalType": "address",
          "name": "from",
          "type": "address"
        },
        {
          "internalType": "address",
          "name": "to",
          "type": "address"
        },
        {
          "internalType": "uint256",
          "name": "id",
          "type": "uint256"
        },
        {
          "internalType": "uint256",
          "name": "amount",
          "type": "uint256"
        },
        {
          "internalType": "bytes",
          "name": "data",
          "type": "bytes"
        }
      ],
      "name": "safeTransferFrom",
      "outputs": [],
      "stateMutability": "nonpayable",
      "type": "function"
    },
    {
      "inputs": [
        {
          "internalType": "address",
          "name": "operator",
          "type": "address"
        },
        {
          "internalType": "bool",
          "name": "approved",
          "type": "bool"
        }
      ],
      "name": "setApprovalForAll",
      "outputs": [],
      "stateMutability": "nonpayable",
      "type": "function"
    },
    {
      "inputs": [
        {
          "internalType": "bytes4",
          "name": "interfaceId",
          "type": "bytes4"
        }
      ],
      "name": "supportsInterface",
      "outputs": [
        {
          "internalType": "bool",
          "name": "",
          "type": "bool"
        }
      ],
      "stateMutability": "view",
      "type": "function",
      "constant": true
    },
    {
      "inputs": [],
      "name": "symbol",
      "outputs": [
        {
          "internalType": "string",
          "name": "",
          "type": "string"
        }
      ],
      "stateMutability": "view",
      "type": "function",
      "constant": true
    },
    {
      "inputs": [],
      "name": "tokenCount",
      "outputs": [
        {
          "internalType": "uint256",
          "name": "",
          "type": "uint256"
        }
      ],
      "stateMutability": "view",
      "type": "function",
      "constant": true
    },
    {
      "inputs": [
        {
          "internalType": "address",
          "name": "newOwner",
          "type": "address"
        }
      ],
      "name": "transferOwnership",
      "outputs": [],
      "stateMutability": "nonpayable",
      "type": "function"
    },
    {
      "inputs": [
        {
          "internalType": "uint256",
          "name": "amount",
          "type": "uint256"
        }
      ],
      "name": "mint",
      "outputs": [],
      "stateMutability": "nonpayable",
      "type": "function"
    },
    {
      "inputs": [
        {
          "internalType": "uint256",
          "name": "_tokenId",
          "type": "uint256"
        }
      ],
      "name": "uri",
      "outputs": [
        {
          "internalType": "string",
          "name": "",
          "type": "string"
        }
      ],
      "stateMutability": "view",
      "type": "function",
      "constant": true
    }
  ],
  "bytecode": "0x60806040523480156200001157600080fd5b5060405162003748380380620037488339818101604052810190620000379190620003f5565b806200004981620000be60201b60201c565b506200006a6200005e620000da60201b60201c565b620000e260201b60201c565b826004908051906020019062000082929190620001a8565b5081600590805190602001906200009b929190620001a8565b508060079080519060200190620000b4929190620001a8565b5050505062000512565b8060029080519060200190620000d6929190620001a8565b5050565b600033905090565b6000600360009054906101000a900473ffffffffffffffffffffffffffffffffffffffff16905081600360006101000a81548173ffffffffffffffffffffffffffffffffffffffff021916908373ffffffffffffffffffffffffffffffffffffffff1602179055508173ffffffffffffffffffffffffffffffffffffffff168173ffffffffffffffffffffffffffffffffffffffff167f8be0079c531659141344cd1fd0a4f28419497f9722a3daafe3b4186f6b6457e060405160405180910390a35050565b828054620001b690620004dd565b90600052602060002090601f016020900481019282620001da576000855562000226565b82601f10620001f557805160ff191683800117855562000226565b8280016001018555821562000226579182015b828111156200022557825182559160200191906001019062000208565b5b50905062000235919062000239565b5090565b5b80821115620002545760008160009055506001016200023a565b5090565b6000604051905090565b600080fd5b600080fd5b600080fd5b600080fd5b6000601f19601f8301169050919050565b7f4e487b7100000000000000000000000000000000000000000000000000000000600052604160045260246000fd5b620002c18262000276565b810181811067ffffffffffffffff82111715620002e357620002e262000287565b5b80604052505050565b6000620002f862000258565b9050620003068282620002b6565b919050565b600067ffffffffffffffff82111562000329576200032862000287565b5b620003348262000276565b9050602081019050919050565b60005b838110156200036157808201518184015260208101905062000344565b8381111562000371576000848401525b50505050565b60006200038e62000388846200030b565b620002ec565b905082815260208101848484011115620003ad57620003ac62000271565b5b620003ba84828562000341565b509392505050565b600082601f830112620003da57620003d96200026c565b5b8151620003ec84826020860162000377565b91505092915050565b60008060006060848603121562000411576200041062000262565b5b600084015167ffffffffffffffff81111562000432576200043162000267565b5b6200044086828701620003c2565b935050602084015167ffffffffffffffff81111562000464576200046362000267565b5b6200047286828701620003c2565b925050604084015167ffffffffffffffff81111562000496576200049562000267565b5b620004a486828701620003c2565b9150509250925092565b7f4e487b7100000000000000000000000000000000000000000000000000000000600052602260045260246000fd5b60006002820490506001821680620004f657607f821691505b6020821081036200050c576200050b620004ae565b5b50919050565b61322680620005226000396000f3fe608060405234801561001057600080fd5b50600436106100ff5760003560e01c806395d89b4111610097578063a22cb46511610066578063a22cb4651461029c578063e985e9c5146102b8578063f242432a146102e8578063f2fde38b14610304576100ff565b806395d89b41146102265780639abc8320146102445780639f181b5e14610262578063a0712d6814610280576100ff565b80632eb2c2d6116100d35780632eb2c2d6146101b25780634e1273f4146101ce578063715018a6146101fe5780638da5cb5b14610208576100ff565b8062fdd58e1461010457806301ffc9a71461013457806306fdde03146101645780630e89341c14610182575b600080fd5b61011e60048036038101906101199190611c3a565b610320565b60405161012b9190611c89565b60405180910390f35b61014e60048036038101906101499190611cfc565b6103e8565b60405161015b9190611d44565b60405180910390f35b61016c6104ca565b6040516101799190611df8565b60405180910390f35b61019c60048036038101906101979190611e1a565b610558565b6040516101a99190611df8565b60405180910390f35b6101cc60048036038101906101c79190612044565b61058c565b005b6101e860048036038101906101e391906121d6565b61062d565b6040516101f5919061230c565b60405180910390f35b610206610746565b005b6102106107ce565b60405161021d919061233d565b60405180910390f35b61022e6107f8565b60405161023b9190611df8565b60405180910390f35b61024c610886565b6040516102599190611df8565b60405180910390f35b61026a610914565b6040516102779190611c89565b60405180910390f35b61029a60048036038101906102959190611e1a565b61091a565b005b6102b660048036038101906102b19190612384565b6109d0565b005b6102d260048036038101906102cd91906123c4565b6109e6565b6040516102df9190611d44565b60405180910390f35b61030260048036038101906102fd9190612404565b610a7a565b005b61031e6004803603810190610319919061249b565b610b1b565b005b60008073ffffffffffffffffffffffffffffffffffffffff168373ffffffffffffffffffffffffffffffffffffffff1603610390576040517f08c379a00000000000000000000000000000000000000000000000000000000081526004016103879061253a565b60405180910390fd5b60008083815260200190815260200160002060008473ffffffffffffffffffffffffffffffffffffffff1673ffffffffffffffffffffffffffffffffffffffff16815260200190815260200160002054905092915050565b60007fd9b67a26000000000000000000000000000000000000000000000000000000007bffffffffffffffffffffffffffffffffffffffffffffffffffffffff1916827bffffffffffffffffffffffffffffffffffffffffffffffffffffffff191614806104b357507f0e89341c000000000000000000000000000000000000000000000000000000007bffffffffffffffffffffffffffffffffffffffffffffffffffffffff1916827bffffffffffffffffffffffffffffffffffffffffffffffffffffffff1916145b806104c357506104c282610c12565b5b9050919050565b600480546104d790612589565b80601f016020809104026020016040519081016040528092919081815260200182805461050390612589565b80156105505780601f1061052557610100808354040283529160200191610550565b820191906000526020600020905b81548152906001019060200180831161053357829003601f168201915b505050505081565b6060600761056583610c7c565b6040516020016105769291906126d6565b6040516020818303038152906040529050919050565b610594610ddc565b73ffffffffffffffffffffffffffffffffffffffff168573ffffffffffffffffffffffffffffffffffffffff1614806105da57506105d9856105d4610ddc565b6109e6565b5b610619576040517f08c379a000000000000000000000000000000000000000000000000000000000815260040161061090612777565b60405180910390fd5b6106268585858585610de4565b5050505050565b60608151835114610673576040517f08c379a000000000000000000000000000000000000000000000000000000000815260040161066a90612809565b60405180910390fd5b6000835167ffffffffffffffff8111156106905761068f611e4c565b5b6040519080825280602002602001820160405280156106be5781602001602082028036833780820191505090505b50905060005b845181101561073b5761070b8582815181106106e3576106e2612829565b5b60200260200101518583815181106106fe576106fd612829565b5b6020026020010151610320565b82828151811061071e5761071d612829565b5b6020026020010181815250508061073490612887565b90506106c4565b508091505092915050565b61074e610ddc565b73ffffffffffffffffffffffffffffffffffffffff1661076c6107ce565b73ffffffffffffffffffffffffffffffffffffffff16146107c2576040517f08c379a00000000000000000000000000000000000000000000000000000000081526004016107b99061291b565b60405180910390fd5b6107cc60006110f7565b565b6000600360009054906101000a900473ffffffffffffffffffffffffffffffffffffffff16905090565b6005805461080590612589565b80601f016020809104026020016040519081016040528092919081815260200182805461083190612589565b801561087e5780601f106108535761010080835404028352916020019161087e565b820191906000526020600020905b81548152906001019060200180831161086157829003601f168201915b505050505081565b6007805461089390612589565b80601f01602080910402602001604051908101604052809291908181526020018280546108bf90612589565b801561090c5780601f106108e15761010080835404028352916020019161090c565b820191906000526020600020905b8154815290600101906020018083116108ef57829003601f168201915b505050505081565b60065481565b610922610ddc565b73ffffffffffffffffffffffffffffffffffffffff166109406107ce565b73ffffffffffffffffffffffffffffffffffffffff1614610996576040517f08c379a000000000000000000000000000000000000000000000000000000000815260040161098d9061291b565b60405180910390fd5b6001600660008282546109a9919061293b565b925050819055506109cd3360065483604051806020016040528060008152506111bd565b50565b6109e26109db610ddc565b8383611352565b5050565b6000600160008473ffffffffffffffffffffffffffffffffffffffff1673ffffffffffffffffffffffffffffffffffffffff16815260200190815260200160002060008373ffffffffffffffffffffffffffffffffffffffff1673ffffffffffffffffffffffffffffffffffffffff16815260200190815260200160002060009054906101000a900460ff16905092915050565b610a82610ddc565b73ffffffffffffffffffffffffffffffffffffffff168573ffffffffffffffffffffffffffffffffffffffff161480610ac85750610ac785610ac2610ddc565b6109e6565b5b610b07576040517f08c379a0000000000000000000000000000000000000000000000000000000008152600401610afe90612a03565b60405180910390fd5b610b1485858585856114be565b5050505050565b610b23610ddc565b73ffffffffffffffffffffffffffffffffffffffff16610b416107ce565b73ffffffffffffffffffffffffffffffffffffffff1614610b97576040517f08c379a0000000000000000000000000000000000000000000000000000000008152600401610b8e9061291b565b60405180910390fd5b600073ffffffffffffffffffffffffffffffffffffffff168173ffffffffffffffffffffffffffffffffffffffff1603610c06576040517f08c379a0000000000000000000000000000000000000000000000000000000008152600401610bfd90612a95565b60405180910390fd5b610c0f816110f7565b50565b60007f01ffc9a7000000000000000000000000000000000000000000000000000000007bffffffffffffffffffffffffffffffffffffffffffffffffffffffff1916827bffffffffffffffffffffffffffffffffffffffffffffffffffffffff1916149050919050565b606060008203610cc3576040518060400160405280600181526020017f30000000000000000000000000000000000000000000000000000000000000008152509050610dd7565b600082905060005b60008214610cf5578080610cde90612887565b915050600a82610cee9190612ae4565b9150610ccb565b60008167ffffffffffffffff811115610d1157610d10611e4c565b5b6040519080825280601f01601f191660200182016040528015610d435781602001600182028036833780820191505090505b5090505b60008514610dd057600182610d5c9190612b15565b9150600a85610d6b9190612b49565b6030610d77919061293b565b60f81b818381518110610d8d57610d8c612829565b5b60200101907effffffffffffffffffffffffffffffffffffffffffffffffffffffffffffff1916908160001a905350600a85610dc99190612ae4565b9450610d47565b8093505050505b919050565b600033905090565b8151835114610e28576040517f08c379a0000000000000000000000000000000000000000000000000000000008152600401610e1f90612bec565b60405180910390fd5b600073ffffffffffffffffffffffffffffffffffffffff168473ffffffffffffffffffffffffffffffffffffffff1603610e97576040517f08c379a0000000000000000000000000000000000000000000000000000000008152600401610e8e90612c7e565b60405180910390fd5b6000610ea1610ddc565b9050610eb181878787878761173f565b60005b8451811015611062576000858281518110610ed257610ed1612829565b5b602002602001015190506000858381518110610ef157610ef0612829565b5b60200260200101519050600080600084815260200190815260200160002060008b73ffffffffffffffffffffffffffffffffffffffff1673ffffffffffffffffffffffffffffffffffffffff16815260200190815260200160002054905081811015610f92576040517f08c379a0000000000000000000000000000000000000000000000000000000008152600401610f8990612d10565b60405180910390fd5b81810360008085815260200190815260200160002060008c73ffffffffffffffffffffffffffffffffffffffff1673ffffffffffffffffffffffffffffffffffffffff168152602001908152602001600020819055508160008085815260200190815260200160002060008b73ffffffffffffffffffffffffffffffffffffffff1673ffffffffffffffffffffffffffffffffffffffff1681526020019081526020016000206000828254611047919061293b565b925050819055505050508061105b90612887565b9050610eb4565b508473ffffffffffffffffffffffffffffffffffffffff168673ffffffffffffffffffffffffffffffffffffffff168273ffffffffffffffffffffffffffffffffffffffff167f4a39dc06d4c0dbc64b70af90fd698a233a518aa5d07e595d983b8c0526c8f7fb87876040516110d9929190612d30565b60405180910390a46110ef818787878787611747565b505050505050565b6000600360009054906101000a900473ffffffffffffffffffffffffffffffffffffffff16905081600360006101000a81548173ffffffffffffffffffffffffffffffffffffffff021916908373ffffffffffffffffffffffffffffffffffffffff1602179055508173ffffffffffffffffffffffffffffffffffffffff168173ffffffffffffffffffffffffffffffffffffffff167f8be0079c531659141344cd1fd0a4f28419497f9722a3daafe3b4186f6b6457e060405160405180910390a35050565b600073ffffffffffffffffffffffffffffffffffffffff168473ffffffffffffffffffffffffffffffffffffffff160361122c576040517f08c379a000000000000000000000000000000000000000000000000000000000815260040161122390612dd9565b60405180910390fd5b6000611236610ddc565b9050611257816000876112488861191e565b6112518861191e565b8761173f565b8260008086815260200190815260200160002060008773ffffffffffffffffffffffffffffffffffffffff1673ffffffffffffffffffffffffffffffffffffffff16815260200190815260200160002060008282546112b6919061293b565b925050819055508473ffffffffffffffffffffffffffffffffffffffff16600073ffffffffffffffffffffffffffffffffffffffff168273ffffffffffffffffffffffffffffffffffffffff167fc3d58168c5ae7397731d063d5bbf3d657854427343f4c083240f7aacaa2d0f628787604051611334929190612df9565b60405180910390a461134b81600087878787611998565b5050505050565b8173ffffffffffffffffffffffffffffffffffffffff168373ffffffffffffffffffffffffffffffffffffffff16036113c0576040517f08c379a00000000000000000000000000000000000000000000000000000000081526004016113b790612e94565b60405180910390fd5b80600160008573ffffffffffffffffffffffffffffffffffffffff1673ffffffffffffffffffffffffffffffffffffffff16815260200190815260200160002060008473ffffffffffffffffffffffffffffffffffffffff1673ffffffffffffffffffffffffffffffffffffffff16815260200190815260200160002060006101000a81548160ff0219169083151502179055508173ffffffffffffffffffffffffffffffffffffffff168373ffffffffffffffffffffffffffffffffffffffff167f17307eab39ab6107e8899845ad3d59bd9653f200f220920489ca2b5937696c31836040516114b19190611d44565b60405180910390a3505050565b600073ffffffffffffffffffffffffffffffffffffffff168473ffffffffffffffffffffffffffffffffffffffff160361152d576040517f08c379a000000000000000000000000000000000000000000000000000000000815260040161152490612c7e565b60405180910390fd5b6000611537610ddc565b90506115578187876115488861191e565b6115518861191e565b8761173f565b600080600086815260200190815260200160002060008873ffffffffffffffffffffffffffffffffffffffff1673ffffffffffffffffffffffffffffffffffffffff168152602001908152602001600020549050838110156115ee576040517f08c379a00000000000000000000000000000000000000000000000000000000081526004016115e590612d10565b60405180910390fd5b83810360008087815260200190815260200160002060008973ffffffffffffffffffffffffffffffffffffffff1673ffffffffffffffffffffffffffffffffffffffff168152602001908152602001600020819055508360008087815260200190815260200160002060008873ffffffffffffffffffffffffffffffffffffffff1673ffffffffffffffffffffffffffffffffffffffff16815260200190815260200160002060008282546116a3919061293b565b925050819055508573ffffffffffffffffffffffffffffffffffffffff168773ffffffffffffffffffffffffffffffffffffffff168373ffffffffffffffffffffffffffffffffffffffff167fc3d58168c5ae7397731d063d5bbf3d657854427343f4c083240f7aacaa2d0f628888604051611720929190612df9565b60405180910390a4611736828888888888611998565b50505050505050565b505050505050565b6117668473ffffffffffffffffffffffffffffffffffffffff16611b6f565b15611916578373ffffffffffffffffffffffffffffffffffffffff1663bc197c8187878686866040518663ffffffff1660e01b81526004016117ac959493929190612f09565b6020604051808303816000875af19250505080156117e857506040513d601f19601f820116820180604052508101906117e59190612f86565b60015b61188d576117f4612fc0565b806308c379a0036118505750611808612fe2565b806118135750611852565b806040517f08c379a00000000000000000000000000000000000000000000000000000000081526004016118479190611df8565b60405180910390fd5b505b6040517f08c379a0000000000000000000000000000000000000000000000000000000008152600401611884906130e4565b60405180910390fd5b63bc197c8160e01b7bffffffffffffffffffffffffffffffffffffffffffffffffffffffff1916817bffffffffffffffffffffffffffffffffffffffffffffffffffffffff191614611914576040517f08c379a000000000000000000000000000000000000000000000000000000000815260040161190b90613176565b60405180910390fd5b505b505050505050565b60606000600167ffffffffffffffff81111561193d5761193c611e4c565b5b60405190808252806020026020018201604052801561196b5781602001602082028036833780820191505090505b509050828160008151811061198357611982612829565b5b60200260200101818152505080915050919050565b6119b78473ffffffffffffffffffffffffffffffffffffffff16611b6f565b15611b67578373ffffffffffffffffffffffffffffffffffffffff1663f23a6e6187878686866040518663ffffffff1660e01b81526004016119fd959493929190613196565b6020604051808303816000875af1925050508015611a3957506040513d601f19601f82011682018060405250810190611a369190612f86565b60015b611ade57611a45612fc0565b806308c379a003611aa15750611a59612fe2565b80611a645750611aa3565b806040517f08c379a0000000000000000000000000000000000000000000000000000000008152600401611a989190611df8565b60405180910390fd5b505b6040517f08c379a0000000000000000000000000000000000000000000000000000000008152600401611ad5906130e4565b60405180910390fd5b63f23a6e6160e01b7bffffffffffffffffffffffffffffffffffffffffffffffffffffffff1916817bffffffffffffffffffffffffffffffffffffffffffffffffffffffff191614611b65576040517f08c379a0000000000000000000000000000000000000000000000000000000008152600401611b5c90613176565b60405180910390fd5b505b505050505050565b6000808273ffffffffffffffffffffffffffffffffffffffff163b119050919050565b6000604051905090565b600080fd5b600080fd5b600073ffffffffffffffffffffffffffffffffffffffff82169050919050565b6000611bd182611ba6565b9050919050565b611be181611bc6565b8114611bec57600080fd5b50565b600081359050611bfe81611bd8565b92915050565b6000819050919050565b611c1781611c04565b8114611c2257600080fd5b50565b600081359050611c3481611c0e565b92915050565b60008060408385031215611c5157611c50611b9c565b5b6000611c5f85828601611bef565b9250506020611c7085828601611c25565b9150509250929050565b611c8381611c04565b82525050565b6000602082019050611c9e6000830184611c7a565b92915050565b60007fffffffff0000000000000000000000000000000000000000000000000000000082169050919050565b611cd981611ca4565b8114611ce457600080fd5b50565b600081359050611cf681611cd0565b92915050565b600060208284031215611d1257611d11611b9c565b5b6000611d2084828501611ce7565b91505092915050565b60008115159050919050565b611d3e81611d29565b82525050565b6000602082019050611d596000830184611d35565b92915050565b600081519050919050565b600082825260208201905092915050565b60005b83811015611d99578082015181840152602081019050611d7e565b83811115611da8576000848401525b50505050565b6000601f19601f8301169050919050565b6000611dca82611d5f565b611dd48185611d6a565b9350611de4818560208601611d7b565b611ded81611dae565b840191505092915050565b60006020820190508181036000830152611e128184611dbf565b905092915050565b600060208284031215611e3057611e2f611b9c565b5b6000611e3e84828501611c25565b91505092915050565b600080fd5b7f4e487b7100000000000000000000000000000000000000000000000000000000600052604160045260246000fd5b611e8482611dae565b810181811067ffffffffffffffff82111715611ea357611ea2611e4c565b5b80604052505050565b6000611eb6611b92565b9050611ec28282611e7b565b919050565b600067ffffffffffffffff821115611ee257611ee1611e4c565b5b602082029050602081019050919050565b600080fd5b6000611f0b611f0684611ec7565b611eac565b90508083825260208201905060208402830185811115611f2e57611f2d611ef3565b5b835b81811015611f575780611f438882611c25565b845260208401935050602081019050611f30565b5050509392505050565b600082601f830112611f7657611f75611e47565b5b8135611f86848260208601611ef8565b91505092915050565b600080fd5b600067ffffffffffffffff821115611faf57611fae611e4c565b5b611fb882611dae565b9050602081019050919050565b82818337600083830152505050565b6000611fe7611fe284611f94565b611eac565b90508281526020810184848401111561200357612002611f8f565b5b61200e848285611fc5565b509392505050565b600082601f83011261202b5761202a611e47565b5b813561203b848260208601611fd4565b91505092915050565b600080600080600060a086880312156120605761205f611b9c565b5b600061206e88828901611bef565b955050602061207f88828901611bef565b945050604086013567ffffffffffffffff8111156120a05761209f611ba1565b5b6120ac88828901611f61565b935050606086013567ffffffffffffffff8111156120cd576120cc611ba1565b5b6120d988828901611f61565b925050608086013567ffffffffffffffff8111156120fa576120f9611ba1565b5b61210688828901612016565b9150509295509295909350565b600067ffffffffffffffff82111561212e5761212d611e4c565b5b602082029050602081019050919050565b600061215261214d84612113565b611eac565b9050808382526020820190506020840283018581111561217557612174611ef3565b5b835b8181101561219e578061218a8882611bef565b845260208401935050602081019050612177565b5050509392505050565b600082601f8301126121bd576121bc611e47565b5b81356121cd84826020860161213f565b91505092915050565b600080604083850312156121ed576121ec611b9c565b5b600083013567ffffffffffffffff81111561220b5761220a611ba1565b5b612217858286016121a8565b925050602083013567ffffffffffffffff81111561223857612237611ba1565b5b61224485828601611f61565b9150509250929050565b600081519050919050565b600082825260208201905092915050565b6000819050602082019050919050565b61228381611c04565b82525050565b6000612295838361227a565b60208301905092915050565b6000602082019050919050565b60006122b98261224e565b6122c38185612259565b93506122ce8361226a565b8060005b838110156122ff5781516122e68882612289565b97506122f1836122a1565b9250506001810190506122d2565b5085935050505092915050565b6000602082019050818103600083015261232681846122ae565b905092915050565b61233781611bc6565b82525050565b6000602082019050612352600083018461232e565b92915050565b61236181611d29565b811461236c57600080fd5b50565b60008135905061237e81612358565b92915050565b6000806040838503121561239b5761239a611b9c565b5b60006123a985828601611bef565b92505060206123ba8582860161236f565b9150509250929050565b600080604083850312156123db576123da611b9c565b5b60006123e985828601611bef565b92505060206123fa85828601611bef565b9150509250929050565b600080600080600060a086880312156124205761241f611b9c565b5b600061242e88828901611bef565b955050602061243f88828901611bef565b945050604061245088828901611c25565b935050606061246188828901611c25565b925050608086013567ffffffffffffffff81111561248257612481611ba1565b5b61248e88828901612016565b9150509295509295909350565b6000602082840312156124b1576124b0611b9c565b5b60006124bf84828501611bef565b91505092915050565b7f455243313135353a2062616c616e636520717565727920666f7220746865207a60008201527f65726f2061646472657373000000000000000000000000000000000000000000602082015250565b6000612524602b83611d6a565b915061252f826124c8565b604082019050919050565b6000602082019050818103600083015261255381612517565b9050919050565b7f4e487b7100000000000000000000000000000000000000000000000000000000600052602260045260246000fd5b600060028204905060018216806125a157607f821691505b6020821081036125b4576125b361255a565b5b50919050565b600081905092915050565b60008190508160005260206000209050919050565b600081546125e781612589565b6125f181866125ba565b9450600182166000811461260c576001811461261d57612650565b60ff19831686528186019350612650565b612626856125c5565b60005b8381101561264857815481890152600182019150602081019050612629565b838801955050505b50505092915050565b600061266482611d5f565b61266e81856125ba565b935061267e818560208601611d7b565b80840191505092915050565b7f2e6a736f6e000000000000000000000000000000000000000000000000000000600082015250565b60006126c06005836125ba565b91506126cb8261268a565b600582019050919050565b60006126e282856125da565b91506126ee8284612659565b91506126f9826126b3565b91508190509392505050565b7f455243313135353a207472616e736665722063616c6c6572206973206e6f742060008201527f6f776e6572206e6f7220617070726f7665640000000000000000000000000000602082015250565b6000612761603283611d6a565b915061276c82612705565b604082019050919050565b6000602082019050818103600083015261279081612754565b9050919050565b7f455243313135353a206163636f756e747320616e6420696473206c656e67746860008201527f206d69736d617463680000000000000000000000000000000000000000000000602082015250565b60006127f3602983611d6a565b91506127fe82612797565b604082019050919050565b60006020820190508181036000830152612822816127e6565b9050919050565b7f4e487b7100000000000000000000000000000000000000000000000000000000600052603260045260246000fd5b7f4e487b7100000000000000000000000000000000000000000000000000000000600052601160045260246000fd5b600061289282611c04565b91507fffffffffffffffffffffffffffffffffffffffffffffffffffffffffffffffff82036128c4576128c3612858565b5b600182019050919050565b7f4f776e61626c653a2063616c6c6572206973206e6f7420746865206f776e6572600082015250565b6000612905602083611d6a565b9150612910826128cf565b602082019050919050565b60006020820190508181036000830152612934816128f8565b9050919050565b600061294682611c04565b915061295183611c04565b9250827fffffffffffffffffffffffffffffffffffffffffffffffffffffffffffffffff0382111561298657612985612858565b5b828201905092915050565b7f455243313135353a2063616c6c6572206973206e6f74206f776e6572206e6f7260008201527f20617070726f7665640000000000000000000000000000000000000000000000602082015250565b60006129ed602983611d6a565b91506129f882612991565b604082019050919050565b60006020820190508181036000830152612a1c816129e0565b9050919050565b7f4f776e61626c653a206e6577206f776e657220697320746865207a65726f206160008201527f6464726573730000000000000000000000000000000000000000000000000000602082015250565b6000612a7f602683611d6a565b9150612a8a82612a23565b604082019050919050565b60006020820190508181036000830152612aae81612a72565b9050919050565b7f4e487b7100000000000000000000000000000000000000000000000000000000600052601260045260246000fd5b6000612aef82611c04565b9150612afa83611c04565b925082612b0a57612b09612ab5565b5b828204905092915050565b6000612b2082611c04565b9150612b2b83611c04565b925082821015612b3e57612b3d612858565b5b828203905092915050565b6000612b5482611c04565b9150612b5f83611c04565b925082612b6f57612b6e612ab5565b5b828206905092915050565b7f455243313135353a2069647320616e6420616d6f756e7473206c656e6774682060008201527f6d69736d61746368000000000000000000000000000000000000000000000000602082015250565b6000612bd6602883611d6a565b9150612be182612b7a565b604082019050919050565b60006020820190508181036000830152612c0581612bc9565b9050919050565b7f455243313135353a207472616e7366657220746f20746865207a65726f20616460008201527f6472657373000000000000000000000000000000000000000000000000000000602082015250565b6000612c68602583611d6a565b9150612c7382612c0c565b604082019050919050565b60006020820190508181036000830152612c9781612c5b565b9050919050565b7f455243313135353a20696e73756666696369656e742062616c616e636520666f60008201527f72207472616e7366657200000000000000000000000000000000000000000000602082015250565b6000612cfa602a83611d6a565b9150612d0582612c9e565b604082019050919050565b60006020820190508181036000830152612d2981612ced565b9050919050565b60006040820190508181036000830152612d4a81856122ae565b90508181036020830152612d5e81846122ae565b90509392505050565b7f455243313135353a206d696e7420746f20746865207a65726f2061646472657360008201527f7300000000000000000000000000000000000000000000000000000000000000602082015250565b6000612dc3602183611d6a565b9150612dce82612d67565b604082019050919050565b60006020820190508181036000830152612df281612db6565b9050919050565b6000604082019050612e0e6000830185611c7a565b612e1b6020830184611c7a565b9392505050565b7f455243313135353a2073657474696e6720617070726f76616c2073746174757360008201527f20666f722073656c660000000000000000000000000000000000000000000000602082015250565b6000612e7e602983611d6a565b9150612e8982612e22565b604082019050919050565b60006020820190508181036000830152612ead81612e71565b9050919050565b600081519050919050565b600082825260208201905092915050565b6000612edb82612eb4565b612ee58185612ebf565b9350612ef5818560208601611d7b565b612efe81611dae565b840191505092915050565b600060a082019050612f1e600083018861232e565b612f2b602083018761232e565b8181036040830152612f3d81866122ae565b90508181036060830152612f5181856122ae565b90508181036080830152612f658184612ed0565b90509695505050505050565b600081519050612f8081611cd0565b92915050565b600060208284031215612f9c57612f9b611b9c565b5b6000612faa84828501612f71565b91505092915050565b60008160e01c9050919050565b600060033d1115612fdf5760046000803e612fdc600051612fb3565b90505b90565b600060443d1061306f57612ff4611b92565b60043d036004823e80513d602482011167ffffffffffffffff8211171561301c57505061306f565b808201805167ffffffffffffffff81111561303a575050505061306f565b80602083010160043d03850181111561305757505050505061306f565b61306682602001850186611e7b565b82955050505050505b90565b7f455243313135353a207472616e7366657220746f206e6f6e204552433131353560008201527f526563656976657220696d706c656d656e746572000000000000000000000000602082015250565b60006130ce603483611d6a565b91506130d982613072565b604082019050919050565b600060208201905081810360008301526130fd816130c1565b9050919050565b7f455243313135353a204552433131353552656365697665722072656a6563746560008201527f6420746f6b656e73000000000000000000000000000000000000000000000000602082015250565b6000613160602883611d6a565b915061316b82613104565b604082019050919050565b6000602082019050818103600083015261318f81613153565b9050919050565b600060a0820190506131ab600083018861232e565b6131b8602083018761232e565b6131c56040830186611c7a565b6131d26060830185611c7a565b81810360808301526131e48184612ed0565b9050969550505050505056fea264697066735822122002715e2d649dfdb3c64f59c0441fe74fe5659aba7ecc39a748940d9cc14fef5c64736f6c634300080d0033",
  "immutableReferences": {},
  "source": "// SPDX-License-Identifier: MIT\r\npragma solidity ^0.8.0;\r\n\r\nimport \"@openzeppelin/contracts/token/ERC1155/ERC1155.sol\";\r\nimport \"@openzeppelin/contracts/access/Ownable.sol\";\r\nimport \"@openzeppelin/contracts/utils/Strings.sol\";\r\n\r\ncontract SuperMarioWorldCollection is ERC1155, Ownable{\r\n    string public name;\r\n    string public symbol;\r\n    uint256 public tokenCount;\r\n    string public baseUri;\r\n\r\n    constructor(\r\n        string memory _name,\r\n        string memory _symbol,\r\n        string memory _baseUri\r\n    ) ERC1155(_baseUri){\r\n        name = _name;\r\n        symbol = _symbol;\r\n        baseUri = _baseUri;\r\n    }\r\n\r\n    function mint(uint256 amount) public onlyOwner{\r\n        tokenCount += 1;\r\n        _mint(msg.sender, tokenCount, amount,\"\");\r\n    }\r\n\r\n     function uri(uint256 _tokenId) override public view returns(string memory){\r\n         return string (\r\n             abi.encodePacked(\r\n                 baseUri,\r\n                 Strings.toString(_tokenId),\r\n                 \".json\"\r\n             )\r\n         ); \r\n     }\r\n}",
  "sourcePath": "C:\\Users\\ojasm\\Documents\\Blockchain\\EatTheBlocks\\nftvisualzer\\contracts\\SuperMarioWorldCollection.sol",
  "compiler": {
    "name": "solc",
    "version": "0.8.13+commit.abaa5c0e.Emscripten.clang"
  },
  "schemaVersion": "3.4.3",
  "updatedAt": "2022-05-13T22:25:10.245Z",
  "networkType": "ethereum",
  "devdoc": {
    "kind": "dev",
    "methods": {
      "balanceOf(address,uint256)": {
        "details": "See {IERC1155-balanceOf}. Requirements: - `account` cannot be the zero address."
      },
      "balanceOfBatch(address[],uint256[])": {
        "details": "See {IERC1155-balanceOfBatch}. Requirements: - `accounts` and `ids` must have the same length."
      },
      "isApprovedForAll(address,address)": {
        "details": "See {IERC1155-isApprovedForAll}."
      },
      "owner()": {
        "details": "Returns the address of the current owner."
      },
      "renounceOwnership()": {
        "details": "Leaves the contract without owner. It will not be possible to call `onlyOwner` functions anymore. Can only be called by the current owner. NOTE: Renouncing ownership will leave the contract without an owner, thereby removing any functionality that is only available to the owner."
      },
      "safeBatchTransferFrom(address,address,uint256[],uint256[],bytes)": {
        "details": "See {IERC1155-safeBatchTransferFrom}."
      },
      "safeTransferFrom(address,address,uint256,uint256,bytes)": {
        "details": "See {IERC1155-safeTransferFrom}."
      },
      "setApprovalForAll(address,bool)": {
        "details": "See {IERC1155-setApprovalForAll}."
      },
      "supportsInterface(bytes4)": {
        "details": "See {IERC165-supportsInterface}."
      },
      "transferOwnership(address)": {
        "details": "Transfers ownership of the contract to a new account (`newOwner`). Can only be called by the current owner."
      }
    },
    "version": 1
  },
  "userdoc": {
    "kind": "user",
    "methods": {},
    "version": 1
  }
}